:020000040800F2
:10000000400500200101000831100008F50D00082E
:100010002D1000082F0800083B1A000800000000FF
:100020000000000000000000000000003D12000879
:10003000CD0B000800000000A510000851130008B7
:100040001B0100081B0100081B0100081B01000820
:100050001B0100081B0100081B0100081B01000810
:100060001B0100081B0100081B0100081B01000800
:100070001B0100081B0100081B0100081B010008F0
:100080001B0100081B0100081B0100081B010008E0
:100090001B0100081B0100081B0100081B010008D0
:1000A0001B0100081B0100081B0100081B010008C0
:1000B0001B010008F1130008351400081B0100089B
:1000C0001B0100081B0100081B0100081B010008A0
:1000D0001B010008651700081B0100081B01000830
:1000E0001B0100081B0100081B010008DFF80CD0F1
:1000F00000F002FB00480047C92C00084005002022
:100100000648804706480047FEE7FEE7FEE7FEE7B1
:10011000FEE7FEE7FEE7FEE7FEE7FEE791130008D5
:10012000ED0000082DE9FE4F81EA030404F00044CD
:1001300021F0004100944FF0000B23F0004350EAFF
:1001400001045ED052EA03045BD0C3F30A54C1F346
:100150000A552C44A4F2F3340194A0FB0254C1F3D9
:10016000130141F48011C3F3130343F4801301FB23
:10017000024400FB034E840A970A44EA815447EA8A
:100180008357A4FB076802958D0A05FB07854FEA94
:10019000932C04FB0C542705029D4FEA065847EAAE
:1001A0001637B5EB08056EEB070C870E920E47EA83
:1001B000811742EA8312A7FB0201B6EB0B0164EB45
:1001C00000042B0D43EA0C335E1844EB1C50DA4656
:1001D0005146E7FB0201C5F313044FEA0B3343EA30
:1001E00014534FEA0432019C43EA0603A4F10C04C1
:1001F0000294009CCDE900B400F0E9F803B0BDE83A
:10020000F08F00200146F9E796230022114600F006
:10021000A1B80EB540F2334102910021CDE90011A1
:100220000A460B4600F0D3F803B000BD00F00042D0
:1002300030F000400AD0C10D01F56071C0F3160026
:1002400042EA0151C20840071143704700200146AD
:10025000704701F0004330B421F0004150EA010240
:1002600006D00A0DA2F56072C1F31301002A02DC68
:1002700030BC00207047440F44EAC104C100E018BC
:1002800030BC00EBC25000F05CB80000002801DB7D
:10029000C0F10040002901DBC1F1004181427047FB
:1002A000002801DBC0F10040002901DBC1F1004161
:1002B0008842704730B50B460146002020220124B9
:1002C00009E021FA02F59D4205D303FA02F5491B24
:1002D00004FA02F52844151EA2F10102F1DC30BD3A
:1002E0002DE9F05F0546002092469B46884606466B
:1002F000814640241BE0284641464746224600F0FE
:100300001CFA53465A46C01A914110D3114618465A
:10031000224600F003FA2D1A67EB01084F462246E9
:100320000120002100F0FAF917EB00094E41201ED0
:10033000A4F10104DFDC484631462A464346BDE8C5
:10034000F09F0029A8BF7047401C490008BF20F05B
:100350000100704710B4B0FA80FC00FA0CF050EACB
:10036000010404BF10BC704749B1CCF1200421FA4C
:1003700004F411FA0CF118BF012121430843A3EB47
:100380000C01CB1D4FEA00614FEA102042BF002054
:1003900010BC704700EBC35010440029A4BF10BC30
:1003A0007047401C490008BF20F0010010BC704796
:1003B00010B5141E73F1000408DA401C41F100016D
:1003C00092185B411A4301D120F0010010BD2DE9C4
:1003D000F04D92469B4611B1B1FA81F202E0B0FABB
:1003E00080F22032904600F099F904460F4640EA28
:1003F0000A0041EA0B0153465A46084313D01146FE
:1004000053EA010019D0C8F14002504600F095F9B6
:1004100005460E4650465946424600F07FF90843CD
:1004200005D0012004E020463946BDE8F08D0020CB
:10043000054346EAE0762C4337430A986305E40A0D
:10044000A0EB08000022FD0A44EA47540A3002D516
:1004500000200146E9E7010510196941DDE9084579
:1004600000196941BDE8F04DA2E72DE9FE4F804635
:1004700081EA0300C00F0C46009021F0004123F0F8
:100480000045B8EB0200A94105D2404621469046FE
:100490001C460B46024623F00040104347D0270D70
:1004A000C7F30A00C3F30A510290401A0190402892
:1004B0006BDAC3F3130040F4801B0098924620B11E
:1004C0000023D2EB030A63EB0B0B01985946C0F1F2
:1004D0004002504600F022F906460D465046594665
:1004E000019A00F03AF910EB08006141002487EA14
:1004F000115284EAE7731A4340D0009A62B3019A1A
:10050000012A4FEA075215DC001B61EB02014FF094
:10051000004202EA0752CDE90042001C41F5801179
:1005200032462B46FFF753FF03B0BDE8F08F40463D
:100530002146F9E7001B61EB0201001C41F5801325
:1005400000185B412018A2F5001747EB030140EAB1
:10055000D570B6196D4111E06D084FEA360645EACF
:10056000C0754FEA0752001B61EB0201001C41F508
:10057000801149084FEA30000019514132462B469C
:1005800003B0BDE8F04FFFF713BF00980122400011
:100590000023D0EB020263EBE073009821464FEAA0
:1005A000E074B8EB000061EB0401E9E783F000437D
:1005B0005BE781F0004158E72DE9F04D81EA030443
:1005C00004F0004B21F0004514464FF0000A23F0E0
:1005D000004150EA050220D054EA01021DD0C5F3C3
:1005E0000A570246C5F31303C1F31300C1F30A56B9
:1005F00040F4801543F48013A7EB0608101BD64681
:1006000008F2FD3873EB050002D308F1010801E0A0
:1006100092185B41B8F1000F03DA00200146BDE8F3
:10062000F08D00204FF48011064684460EE0171B23
:1006300073EB050705D3121B63EB050306434CEA76
:10064000010C49084FEA300092185B4150EA01075B
:10065000EDD152EA030012D082EA040083EA0501D8
:10066000084305D0101BAB4106D20122002306E04F
:1006700000224FF0004302E06FF0010253101AEB2A
:1006800006004CEB085110EB0A0041EB0B01BDE8F2
:10069000F04DFFF78DBEC1F30A52C1F3130140F2D2
:1006A000FF3341F480119A4202DA0020014670477C
:1006B00040F233439A42A2F2334202DC524200F04B
:1006C0003CB800F02BB8000030B5041E71F10004F6
:1006D00004DB4FF00044404264EB0101141E73F14F
:1006E000000405DB1C464FF00043524263EB040359
:1006F000994208BF904230BD064C074D06E0E068C5
:1007000040F0010394E8070098471034AC42F6D358
:10071000FFF7F0FCE43E0008043F0008202A04DB59
:10072000203A00FA02F1002070479140C2F1200304
:1007300020FA03F3194390407047202A04DB203A43
:1007400021FA02F00021704721FA02F3D040C2F1F1
:1007500020029140084319467047202A06DBCB1738
:10076000203A41FA02F043EAE07306E041FA02F36C
:10077000D040C2F12002914008431946704710B59D
:1007800000F056FB10BD70B50446002600F0F0FBEB
:100790002546E11704EB11610912A02202EB410189
:1007A000C8B200F0B3FB00F01BFCE11704EB1161D1
:1007B0000912A4EB0121C8B200F0A8FB00F010FC64
:1007C00000F0D6FBA12000F0A1FB00F009FC002006
:1007D00000F070FB064600F0E7FB304670BD70B5D8
:1007E00004460E4600F0C4FB2546E11704EB1161F8
:1007F0000912A02202EB4101C8B200F087FB00F011
:10080000EFFBE11704EB11610912A4EB0121C8B25F
:1008100000F07CFB00F0E4FB304600F077FB00F0DA
:10082000DFFB00F0C1FB0A2002F03AF870BD00BF08
:10083000FEE7000000B585B00121480400F034FC5B
:100840000121042000F050FC18208DF81300042032
:10085000ADF8100003208DF8120004A9144800F030
:10086000B6F904208DF813000820ADF8100003201D
:100870008DF8120004A90E4800F0A9F94FF41650A3
:1008800000900020ADF80400ADF80600ADF80800B7
:10089000ADF80C000C20ADF80A006946054801F0DF
:1008A00057F80121034800F0EAFF05B000BD000041
:1008B000000801400044004010B5002400F064F836
:1008C00004E0601CC4B2012002F010F80D4800687A
:1008D00008B1C82CF5DBC82C01DB012010BD0024B9
:1008E00004E0601CC4B2012002F000F80548006872
:1008F00008B9F02CF5DBF02C01DB0120EEE700203D
:10090000ECE700002C0121422DE9F05F00F0C2F875
:1009100000F0AAF8FFF7D0FFCC2000F0C7F8BE2007
:1009200000F0C4F800F08EF8834600F08BF88246A1
:1009300054460BEB042084B204F47840B0F5784FB1
:100940000FD1E043401C84B22046FFF762FC07460B
:1009500000220B4BFFF7E6FB0546FFF77AFC8146CA
:100960000BE02046FFF755FC05460022054BFFF73C
:10097000D9FB0746FFF76DFC81464846BDE8F09F6E
:100980000000B0BF0000B03F08B54FF40060ADF804
:10099000000048208DF803006946024800F017F96E
:1009A00008BD00000008014008B54FF40060ADF834
:1009B000000003208DF8020010208DF80300694626
:1009C000014800F004F908BD0008014008B5012104
:1009D000042000F089FB4FF40060ADF80000032014
:1009E0008DF8020010208DF803006946034800F0DE
:1009F000EEF800F039F8FFF75FFF08BD000801408E
:100A000010B5FFF7D1FF00200C490860022001F06B
:100A10006DFF01200A49C1F8AC01FFF7B5FF0C20BA
:100A200001F064FF05488038006808B1012400E047
:100A30000024322001F05AFF204610BDAC012142B3
:100A40000000214270B50026002508E0FFF7D8FF1E
:100A50000446E00140EA6600C6B2681CC5B2082D33
:100A6000F4DB304670BD000010B5FFF79DFF00209D
:100A70000649086040F2EE2001F038FF01200449E9
:100A8000C1F8AC010F2001F031FF10BDAC012142D3
:100A90000000214210B5FFF7E7FFFFF70DFFCC2064
:100AA00000F004F8442000F001F810BD70B50446D1
:100AB000FFF77AFF012520E004F0010664106EB113
:100AC00000200F490860022001F010FF01200D49AD
:100AD000C1F8AC013C2001F009FF0CE000200849FE
:100AE00008603C2001F002FF01200649C1F8AC017A
:100AF000022001F0FBFE681CC5B2082DDCDD70BDD4
:100B0000AC0121420000214210B5002400BF24485E
:100B10000068002842D123A000F092FF052001F0D8
:100B2000BFFE1F480068012838D11FA000F088FFD1
:100B3000052001F0B5FE1A48006800B9E7E718483B
:100B4000006806E000BF18A000F07AFF052001F061
:100B5000A7FE134800680128F4D01148006888B93E
:100B600000240CE00FA000F06BFF052001F098FEC0
:100B70000B48006800B900E000BF601CC4B2022C42
:100B8000F0DD07E006480068012803D106A000F068
:100B900057FFD8E7032C01D1012010BD0020FCE74E
:100BA0002C812142302000003120000006480068DE
:100BB000012806D100BF044800680128FBD00120AD
:100BC00070470020FCE700002C81214270472DE98E
:100BD000F0410246002500260020002300240027C3
:100BE00091F803C00CF00F0591F803C00CF0100C45
:100BF000BCF1000F03D091F802C04CEA050591F852
:100C000000C0BCF1000F31D0146800202BE04FF081
:100C1000010C0CFA00F3B1F800C00CEA03069E4286
:100C200020D183004FF00F0C0CFA03F7BC4305FAF8
:100C300003FC4CEA040491F803C0BCF1280F06D170
:100C40004FF0010C0CFA00FCC2F814C00AE091F855
:100C500003C0BCF1480F05D14FF0010C0CFA00FCA9
:100C6000C2F810C0401C0828D1D31460B1F800C0ED
:100C7000BCF1FF0F34DD546800202EE000F1080CB9
:100C80004FF0010808FA0CF3B1F800C00CEA0306B3
:100C90009E4221D183004FF00F0C0CFA03F7BC43A6
:100CA00005FA03FC4CEA040491F803C0BCF1280FD8
:100CB00005D100F1080C08FA0CF8C2F8148091F87C
:100CC00003C0BCF1480F07D100F1080C4FF0010838
:100CD00008FA0CF8C2F81080401C0828CED35460E3
:100CE000BDE8F081F0B50A4600230024002100256C
:100CF00000F00046B6F1004F02D11D4EF16901E04F
:100D00001B4E7168C0F3034583B200F44016B6F57C
:100D1000401F08D121F07061154E766826F070668C
:100D2000134F7E6012E000F48016B6F5801F06D1E6
:100D3000032606FA05F4A14341F0706106E0460D72
:100D4000360103FA06F6B14341F0706122B1460D57
:100D5000360103FA06F6314300F00046B6F1004FC3
:100D600002D1034EF16101E0014E7160F0BD00005F
:100D70000000014008B50121082000F0B5F94FF44A
:100D80000060ADF8000003208DF8020028208DF8E7
:100D9000030069460548FFF71AFF4FF47040ADF8AD
:100DA000000069460148FFF712FF08BD000C014032
:100DB00008B50121082000F097F90720ADF80000E0
:100DC00003208DF8020010208DF8030069460648C4
:100DD000FFF7FDFE0120054908600549C1F88401BF
:100DE00002490839086008BD000C01408881214291
:100DF0000080214200BFFEE710B500200A490860CC
:100E000000F00AFA00200949C1F89C01022001F013
:100E10006DFD012004490860052001F067FD0020F8
:100E20000249C1F8980110BD9881214200802142F9
:100E300008B50121082000F057F94020ADF8000066
:100E400003208DF8020010208DF803006946084841
:100E5000FFF7BDFE8020ADF8000069460448FFF7AB
:100E6000B6FE0120034908600349C1F89C0108BD92
:100E7000000C0140988121420080214210B50020E1
:100E80000A49086000F0C8F901200949C1F89C012D
:100E9000022001F02BFD012004490860052001F02B
:100EA00025FD00200249C1F8980110BD988121421A
:100EB0000080214270B50546002400F09FF900260D
:100EC00016E000200F490860022001F00FFD01200C
:100ED0000D49C1F898016006040E0A487C38006884
:100EE00008B1601CC4B2012001F000FD701CC6B244
:100EF000082EE6DB15B9FFF7C1FF01E0FFF77CFF25
:100F0000204670BD988121420080214270B5044680
:100F100000F082F9002014490860002520E004F068
:100F20008000002804DD01200F49091D086003E04E
:100F300000200D49091D08606006040E022001F022
:100F4000D5FC012008490860022001F0CFFC0020F8
:100F50000649C1F89801022001F0C8FC681CC5B21E
:100F6000082DDCDB70BD0000988121420080214209
:100F700010B500F051F90120094908600949C1F88C
:100F80009801052001F0B2FC002005490860062008
:100F900001F0ACFC00200349C1F8980110BD00002D
:100FA0009C8121420080214210B500F035F90020DB
:100FB000094908600949C1F89C01012006490860F7
:100FC000062001F093FC01200449C1F89C01062091
:100FD00001F08CFC10BD000098812142008021426C
:100FE00010B5002401200F49086001F07FFC00F0DB
:100FF00005F901200C49C1F8980101F077FC07E0E0
:10100000601CC4B2FA2C03DDFFF7CEFF012010BD37
:101010000448803800680028F2D10249091F08609E
:1010200000BFF4E79C8121420080214200BFFEE71F
:101030007047000070B5002100230F22C47804B36C
:10104000154C246804F4E064C4F5E064210AC1F19D
:101050000403CA40447804FA03F18478144021431D
:1010600009010E4C0678A155047804F01F050124EF
:10107000AC4005786D11AD0005F1E025C5F80041E3
:1010800009E0047804F01F050124AC40044D067803
:10109000761145F8264070BD0CED00E000E400E05C
:1010A00080E100E07047000029B1064AD26902439E
:1010B000044BDA6104E0034AD2698243014BDA61EE
:1010C000704700000010024029B1064A126902432D
:1010D000044B1A6104E0034A12698243014B1A610E
:1010E000704700000010024029B1064A926902438D
:1010F000044B9A6104E0034A92698243014B9A616E
:10110000704700000010024029B1064AD26802432D
:10111000044BDA6004E0034AD2688243014BDA6090
:10112000704700000010024030B50021002200246A
:1011300000232D4D6D6805F00C0121B1042905D067
:10114000082923D105E0294D056022E0274D0560DF
:101150001FE0254D6D6805F47012234D6D6805F490
:101160008034022505EB92421CB9214D55430560A0
:101170000BE01D4D6D6805F400351DB11C4D554348
:10118000056002E0194D5543056002E0174D05600A
:1011900000BF00BF144D6D6805F0F0010909154D41
:1011A0006B5C0568DD4045600F4D6D6805F4E061DE
:1011B000090A104D6B5C4568DD4085600A4D6D681D
:1011C00005F46051C90A0B4D6B5C4568DD40C56094
:1011D000054D6D6805F44041890B074D6B5CC56892
:1011E000B5FBF3F5056130BD0010024000127A0036
:1011F00000093D00000000201000002008B58020FC
:10120000ADF8000048208DF8030069460148FFF75B
:10121000DEFC08BD000C014008B58020ADF80000E0
:1012200003208DF8020010208DF803006946024863
:10123000FFF7CDFC08BD0000000C0140704710B561
:1012400000F002F810BD00000CB5002001900090E5
:101250003348006840F480303149086000BF3048AE
:10126000006800F4003000900198401C0190009844
:1012700018B90198B0F5A06FF1D12948006800F4C1
:10128000003010B10120009001E000200090009893
:10129000012843D12348006840F01000214908602C
:1012A0000846006820F0030008600846006840F027
:1012B000020008601A4840681949486008464068BA
:1012C00048600846406840F48060486008464068CE
:1012D00020F47C1048600846406840F4E8104860FC
:1012E0000846006840F08070086000BF0C48006845
:1012F00000F000700028F9D00948406820F0030091
:10130000074948600846406840F00200486000BF56
:101310000348406800F00C000828F9D10CBD00001B
:101320000010024000200240042808D14FF0E021C4
:10133000096941F004014FF0E022116107E04FF02C
:10134000E021096921F004014FF0E02211617047AA
:101350007047000010B504466FF00400FFF7E4FF8B
:10136000E11704EB5171C1F3C701074A1170104630
:10137000007800EB4001C1EBC0104FF6FF7101EAAD
:10138000C0000249088010BD36000020380000204F
:1013900010B51348006840F0010011490860084684
:1013A0004068104908400E494860084600680E49E8
:1013B00008400B4908600846006820F48020086057
:1013C0000846406820F4FE0048604FF41F00886023
:1013D000FFF735FF4FF000600449086010BD0000C2
:1013E000001002400000FFF8FFFFF6FE08ED00E0ED
:1013F00010B50121074800F049F928B1012006493C
:10140000087006A000F01CFB0121024800F03BF828
:1014100010BD00000004004020000020496E7369E8
:1014200064652074696D6572332068616E646C65F3
:1014300072200A0010B50121084800F027F938B1E0
:101440000120074908700749087007A000F0F8FA62
:101450000121024800F017F810BD0000000800400C
:101460001600002027000020496E7369646520740F
:1014700068652068616E646C6572200A0000000077
:10148000CA4302827047CA430282704721B1028870
:1014900042F00102028004E002884FF6FE731A4017
:1014A0000280704710B504466848844208D1012183
:1014B000C014FFF729FE0021E014FFF725FEC4E069
:1014C000B4F1804F08D101210846FFF7FDFD00214E
:1014D0000120FFF7F9FDB8E05D48844208D1012101
:1014E0000220FFF7F1FD00210220FFF7EDFDACE047
:1014F0005848844208D101210420FFF7E5FD00216E
:101500000420FFF7E1FDA0E05348844208D1012107
:101510000820FFF7D9FD00210820FFF7D5FD94E052
:101520004E48844208D101211020FFF7CDFD002153
:101530001020FFF7C9FD88E04948844208D1012105
:101540002020FFF7C1FD00212020FFF7BDFD7CE03A
:101550004448844208D101214014FFF7D5FD002101
:101560006014FFF7D1FD70E03F48844209D10121AA
:10157000C804FFF7C9FD00214FF40020FFF7C4FDA8
:1015800063E03A48844209D101210805FFF7BCFD18
:1015900000214FF48010FFF7B7FD56E03448844235
:1015A00009D101214805FFF7AFFD00214FF40010DC
:1015B000FFF7AAFD49E02F48844208D101214020CD
:1015C000FFF782FD00214020FFF77EFD3DE02A4825
:1015D000844208D101218020FFF776FD0021802080
:1015E000FFF772FD31E02548844208D101218015C2
:1015F000FFF76AFD0021A015FFF766FD25E02048F2
:10160000844209D101210804FFF77EFD00214FF437
:101610008030FFF779FD18E01A48844209D1012192
:101620004804FFF771FD00214FF40030FFF76CFD17
:101630000BE01548844208D101218804FFF764FDBE
:1016400000214FF48020FFF75FFD10BD002C01400A
:101650000004004000080040000C00400010004062
:101660000014004000340140004C01400050014093
:101670000054014000180040001C004000200040C1
:1016800000400140004401400048014030B502469E
:10169000002000230024158A05EA0103958905EA44
:1016A000010413B10CB1012000E0002030BD1AB1DB
:1016B00083890B43838102E083898B438381704755
:1016C000002202881D4B98420ED01D4B98420BD031
:1016D000B0F1804F08D01B4B984205D01A4B98426E
:1016E00002D01A4B984204D14FF68F731A404B88A0
:1016F0001A43174B984207D0164B984204D04FF626
:10170000FF431A40CB881A4302808B8883850B885D
:1017100003850A4B98420BD0094B984208D00E4BD8
:10172000984205D00D4B984202D00D4B984201D102
:101730000B7A03860123838270470000002C01404E
:10174000003401400004004000080040000C00404C
:1017500000100040001400400040014000440140DF
:101760000048014010B540F22551114800F0A0F8A2
:10177000E8B10F4800F058F9C4B20E480E49097894
:1017800044540D480078401C0B4908700846007806
:1017900016280CD10020087000F0BEFE38B101F010
:1017A000E7FB01F0D5FC002002490870487510BD28
:1017B000003801405D0000203A00002010B586B0DE
:1017C000044601210420FFF78FFC01218803FFF765
:1017D0008BFC4FF40070ADF8140003208DF8160058
:1017E00018208DF8170005A91E48FFF7F0F94FF4EF
:1017F0008060ADF8140004208DF8170005A9194881
:10180000FFF7E5F901940020ADF80800ADF80A00F3
:10181000ADF80C00ADF810000C20ADF80E0001A9D9
:10182000114800F095F801210F4800F028F84021F8
:101830000D4800F01BF8012240F225510A4800F043
:1018400061F825208DF8000003208DF801008DF847
:10185000020001208DF803006846FFF7EBFB06B09D
:1018600010BD0000000801400038014001F4007282
:10187000B2F5007F00D100BFCA430280704721B19A
:10188000828942F40052828104E082894DF6FF731E
:101890001A408281704702460020B1F5007F00D1D6
:1018A00000BF13880B400BB1012000E000207047FF
:1018B00070B50246002400230025002040F66A1679
:1018C000B14200D100BFC1F3421501F01F03012650
:1018D00006FA03F3012D02D19689334006E0022D6A
:1018E00002D1168A334001E0968A33400C12012659
:1018F00006FA04F41688344013B10CB1012000E05C
:10190000002070BDF0B5034600240026002500200D
:1019100040F66A17B94200D100BF1846C1F342141D
:1019200001F01F06012707FA06F5012C01D10C3042
:1019300004E0022C01D1103000E014301AB1076825
:101940002F43076002E00768AF430760F0BD000067
:101950002DE9F04786B005460E460024A24600BF9A
:10196000A1460027B08900B100BF2F462C8A4CF653
:10197000FF700440F08804432C82AC894EF6F310CB
:101980000440B08831890843718908430443AC811D
:10199000AC8A4FF6FF400440B0890443AC8201A8F2
:1019A000FFF7C2FB1F48874202D1DDF810A001E01B
:1019B000DDF80CA0A88900F4004040B10AEBCA0091
:1019C00000EB0A1031684900B0FBF1F807E00AEBC0
:1019D000CA0000EB0A1031688900B0FBF1F86420FE
:1019E000B8FBF0F004012009642101FB1089A889EB
:1019F00000F4004040B1322000EBC900B0FBF1F030
:101A000000F00700044308E0322000EB09106421D5
:101A1000B0FBF1F000F00F0004432C8106B0BDE8EC
:101A2000F08700000038014001468888C0F30800B4
:101A30007047C1F308028280704700BFFEE70000D4
:101A40000FB4054B10B503A9044A029800F0DAF868
:101A500010BC5DF814FB0000652B0008400000205E
:101A600002E008C8121F08C1002AFAD17047704767
:101A7000002001E001C1121F002AFBD170470000C5
:101A80002DE9FF5F82B00021DDE90430020DDDF8B1
:101A900040B0034318D044F61050A2F2FF32424344
:101AA0001514119801281FD0A5EB0B00401C5FEA0C
:101AB000000A4FF000064E4FDFF83891B04650460E
:101AC00015D5CAF1000413E0119801244AA3012896
:101AD00001D16FEA0B010298119AC0E90031C0E907
:101AE000024206B0BDE8F09FCBF10000DFE70446FC
:101AF0000021404A491842EB0450CDE9001012E0A1
:101B0000E00707D032463B4640464946FEF70AFB0F
:101B10008046894632463B4610461946FEF702FB90
:101B200006460F466410002CEAD1DDE90401DDE928
:101B30000023BAF1000F06DAFEF7F4FA42464B46EC
:101B4000FEF7F0FA05E0FEF737FD42464B46FEF79A
:101B500033FD04460E460022284BFEF7B5FD03D8A0
:101B60004FF0FF30014607E00022254B204631466A
:101B7000FEF77BFCFEF78FFD102409E0002C0ADB4A
:101B80000A220023FEF7ACFB039B30321A55641E79
:101B900050EA0102F2D1641C039AC4F11103144407
:101BA000119A012A03D0012208430DD10AE008430B
:101BB00004D000204FF0110B119072E7A3EB0B053E
:101BC0006D1E0DE05B4504DD4FF0000205F10105DF
:101BD00004E003DA4FF00002A5F10105002AECD081
:101BE00002981199C0E90231C0E9004579E7000087
:101BF000000014400000F03F300000000000F043FF
:101C00000000E03F2DE9FF4F95B09B468946064610
:101C100000250FE2252877D100242746F84A012124
:101C2000059400E0044316F8013F203B01FA03F05D
:101C30001042F7D130782A2811D06FF02F03307876
:101C4000A0F13002092A16D8059A44F0020402EBEA
:101C5000820203EB42021044761C0590EFE759F82C
:101C6000042B0592002A03DA504244F400540590F4
:101C700044F00204761C30782E2816D116F8010F95
:101C800044F004042A280DD06FF02F023078A0F120
:101C90003003092B09D807EB870302EB4303C7186E
:101CA000761CF3E759F8047B761C30786C280FD04B
:101CB00006DC4C2817D068280DD06A2814D104E01F
:101CC000742810D07A280FD10DE044F400140AE0F3
:101CD00044F4801401E044F440147278824202D14A
:101CE00004F58014761C761C307866280BD013DC43
:101CF000582877D009DC002875D04528F6D046282A
:101D0000F4D047281AD19DE118E0632835D0642823
:101D100079D0652812D195E1702873D008DC672846
:101D2000F1D069286FD06E280DD06F2806D1B5E0AC
:101D300073282CD0752875D0782874D05A461799F6
:101D400090476D1C75E1C4F30250022809D00328A6
:101D50000DD0D9F8001004280DD00D6009F1040948
:101D600067E1D9F80010EA17C1E90052F6E7D9F89F
:101D700000100D80F2E70D70F0E719F8041B8DF8E4
:101D8000001000208DF80100EA46012003E059F818
:101D900004AB4FF0FF3061074FF0000102D40DE0BB
:101DA00008F101018846B9420FDA8045F8DB1AF8DC
:101DB00008100029F4D108E008F1010188468142A9
:101DC000FADB1AF808100029F6D105985B46A0EB5B
:101DD000080721463846179A00F094FA284400EB89
:101DE000080507E04DE029E10DE01AF8010B5A461D
:101DF00017999047B8F10108F7D25B46214638465B
:101E0000179A13E142E00A220092C4F302524FF003
:101E1000000A022A08D059F804CB032A4FEAEC71D1
:101E20000AD00DE029E02AE009F1070121F00702BC
:101E3000F2E802C1914609E00FFA8CFC4FEAEC711E
:101E4000042A03D14FFA8CFC4FEAEC71002907DA1F
:101E50000A460021DCF1000C61EB02012D2202E0B8
:101E6000220504D52B228DF80420012203E0E2078D
:101E700001D02022F7E7904659E00A2102E0102223
:101E80000DE010214FF0000A00910BE010224FF0FE
:101E9000000A44F004040827009203E008224FF0EF
:101EA000000A0092C4F30252022A05D059F804CB6A
:101EB0000021032A08D009E009F1070121F00702F7
:101EC000F2E802C1914605E01FFA8CFC042A01D118
:101ED0000CF0FF0C4FF00008220728D5702806D020
:101EE000009B83F0100353EA0A0305D00EE0402262
:101EF0008DF80420012208E05CEA010206D03022BD
:101F00008DF804208DF8050002229046009B83F096
:101F1000080353EA0A030AD15CEA010201D162070D
:101F200005D530228DF804204FF001087F1E582877
:101F300004D034A003900EA802900DE036A0F9E77B
:101F400053466046009AFEF7CBF984460398825CBC
:101F50000298401E029002705CEA0100F0D10298E3
:101F600006A9081A00F1200A600702D524F480347B
:101F700000E00127574502DDA7EB0A0000E0002042
:101F800000EB0A01009005984144401A0590E003D7
:101F900006D45B462146179A059800F0B3F905442C
:101FA000002706E001A85A46C05D179990476D1CAE
:101FB0007F1C4745F6DBE0030CD55B462146179AAC
:101FC000059800F09FF9054404E030205A4617991F
:101FD00090476D1C0099481E00900029F5DC08E030
:101FE000029802995A460078491C02911799904725
:101FF0006D1CBAF10001AAF1010AF1DC65E10000F3
:1020000009280100303132333435363738396162CE
:102010006364656600000000303132333435363792
:1020200038394142434445460000000000F058F969
:102030000544761C307800287FF4ECAD19B02846B2
:10204000BDE8F08F620700D4062709F1070222F0ED
:10205000070CFCE80223E14603F000485FEA080CA5
:1020600002D00FF2702C0DE05FEA045C02D50FF293
:10207000682C07E05FEAC47C02D00FF2602C01E01C
:10208000AFF2700C4FF0FF3823F00043CDF850C092
:1020900065280CD006DC452809D046281DD04728E5
:1020A0003DD13DE0662818D067287ED138E0002178
:1020B000112F01DB112000E0781CCDE9000106A9F9
:1020C0000EA8FFF7DDFCDDE90F010E9A0391002158
:1020D000009207F1010A04914DE04FF00040009793
:1020E000CDE9011006A90EA8FFF7CAFCDDE90F0231
:1020F00003920E9B11990022DDF80CA0009304922C
:1021000011B9791C00EB010AB7EB0A0004D4C0F145
:10211000FF3007F1010A0490AAEB0700019044E0A8
:10212000012F00DA01270021112F01DD112000E02D
:102130003846CDE9000106A90EA8FFF7A1FCDDE9AC
:102140000F010E9A0391002104910092BA462107D3
:102150000CD40399514500DA8A46BAF1010F05DD26
:10216000009AAAF10101515C302908D0B84202DA84
:1021700010F1040F06DA0121CDE9011015E0AAF1F2
:102180000101E9E7002805DC049901440491AAEB68
:10219000000102E0411C514500DD8A460499401AC5
:1021A000401C01904FF000400290200704D4019899
:1021B000504501DBCDF8048000208DF84F000298D7
:1021C0000DF14F07B0F1004F25D02B200E90029853
:1021D0004FF0020800280CDA404202902D200E90A9
:1021E00007E00A210298FEF765F83031029007F8FF
:1021F000011DB8F10001A8F10108F2DC02980028E5
:10220000EFD1791E0E980870307800F0200040F071
:10221000450007F8020D12A8C01B00F1070814982A
:10222000007800B1012000EB0A01019801EBE07198
:1022300005984144401A401E0590E00306D45B46D1
:102240002146179A059800F05DF805441498007827
:1022500018B15A46179990476D1CE00324D55B4688
:102260002146179A059800F04DF805441CE00498A3
:10227000002807DBDDE90301884203DD0098405CAC
:10228000179901E0179930205A469047049805F1B4
:102290000105401C04900198401E019004D12E209D
:1022A0005A46179990476D1CBAF10001AAF1010A2C
:1022B000DDDC05E017F8010B5A46179990476D1CB5
:1022C000B8F10001A8F10108F4DC5B462146179A39
:1022D0000598ABE62D0000002B0000002000000058
:1022E0002DE9F041044600251E461746880404D413
:1022F00005E039462020B0476D1C641EF9D52846FC
:10230000BDE8F0812DE9F041044600251E469046C7
:10231000C80301D5302700E02027880404D505E054
:1023200041463846B0476D1C641EF9D52846BDE8C5
:10233000F08100002DE9F04781464FF000080127A9
:102340004FF0000A00260025002448F69F4142F67F
:10235000E06001F0F9F9A8E000BFFEF727FC804635
:1023600000BFB8F1000F13D007B95EB11FB14FA085
:10237000FFF766FB03E016B14DA0FFF761FB4D4888
:10238000FFF790F84CA0FFF75BFB0220BDE8F08759
:102390004D4800680028DED0192000F081FA4A4834
:1023A0000068002853D149A0FFF74AFB192000F02C
:1023B00077FA4548006858B91FB13E48FFF772F8F0
:1023C0000027012E09D100263A48FFF76BF804E0F8
:1023D0003D480068012800D1BFE70AE0FEF794FB02
:1023E0008046B8F1000F00D0BBE700BF642000F0CA
:1023F00057FA354800680028F0D03348006800B923
:10240000F4E7002510E0FEF77FFB8046B8F1000FEF
:1024100000D0A6E7642000F043FA2B48006800B122
:1024200000E003E0681CC5B2022DECDD00BF032D07
:1024300009D1601CC4B248F69F414FF4FA5001F034
:1024400083F9012603E00AF1010000F0FF0A2146AA
:102450001FA0FFF7F5FA20480078012818D10020C6
:102460001D4908701348FFF71DF834B91BA0FFF78A
:10247000E7FA00201D49086088E7002C08DD1248B3
:102480000068012804D11AA0FFF7DAFA02207DE7DC
:102490004C450ADD0748FFF705F81AA0FFF7D0FA08
:1024A000002012490860012070E755E74100000054
:1024B00042000000000800407069636B656420758D
:1024C000702062200A00000024812142620A00007C
:1024D000723A2025750A0000160000207573657297
:1024E000206275737920210A0000000094012142C6
:1024F00075736572205069636B6564207570210A7D
:1025000000000000206E6F206F6E6520616E737793
:102510006572696E670A00007CB50A2528A000680C
:10252000019028A000680090274800787E282BD1D1
:102530002548407DEF2827D1002414E000BF8021EA
:102540002248FFF7A8F90028F9D001A8015D1F482B
:10255000FFF76FFA00BF40211C48FFF79CF90028E5
:10256000F9D0601CC4B2022CE8DB012408E0164854
:10257000015D2846FEF733F9681CC5B2601CC4B281
:10258000152CF4DB01207CBD002414E000BF802169
:102590000E48FFF780F90028F9D01DF804100B4809
:1025A000FFF747FA00BF40210848FFF774F90028F9
:1025B000F9D0601CC4B2032CE8DB0020E3E7000084
:1025C0004F4B0000455252005D0000200038014092
:1025D00070B50026002443E000BF60480068002872
:1025E0003ED1052000F05CF95C480068012837D135
:1025F000052000F055F95948006800B9EDE7574843
:10260000006808E000BF052000F04AF9544800784F
:10261000012800D12AE0514800680128F2D04F4833
:10262000006870B9002509E0052000F039F94B4831
:10263000006800B900E000BF681CC5B2022DF3DDE0
:1026400004E046480068012800D1DCE7032D07D1EB
:102650004448FEF727FF012643A0FFF7F1F903E006
:102660003F4800780028B7D000BF00BF3C48007842
:1026700070B100203A4908703A48FEF713FF002075
:102680003D4908603DA0FFF7DBF940A0FFF7D8F90E
:10269000C6B13248001D006808B1601CC4B22F48A2
:1026A0000830006808B1A01CC4B22C480C30006887
:1026B00008B1201DC4B229481030006810B104F1DF
:1026C0000800C4B20D2C44D2DFE804F043070C111B
:1026D000161B20252A2F34393E0030A0FFF7B0F911
:1026E000312070BD32A0FFF7ABF93220F9E735A0F9
:1026F000FFF7A6F93320F4E737A0FFF7A1F934205C
:10270000EFE73AA0FFF79CF93520EAE73CA0FFF796
:1027100097F93620E5E73FA0FFF792F93720E0E789
:1027200041A0FFF78DF93820DBE744A0FFF788F9D7
:102730003920D6E746A0FFF783F93020D1E749A03A
:10274000FFF77EF92A20CCE74BA0FFF779F9232089
:10275000C7E74EA0FFF774F93F20C2E72C81214262
:10276000160000200008004076616C696420746FD8
:102770006E6520696E0A000094012142686F6F6BDC
:1027800020726573657465640000000054696D65AE
:10279000644F55542121210A0000000072657475B0
:1027A000726E2076616C756520697320310A0000B5
:1027B00072657475726E2076616C75652069732020
:1027C000320A000072657475726E2076616C7565F0
:1027D00020697320330A000072657475726E20766A
:1027E000616C756520697320340A00007265747528
:1027F000726E2076616C756520697320350A000061
:1028000072657475726E2076616C756520697320CF
:10281000360A000072657475726E2076616C75659B
:1028200020697320370A000072657475726E207615
:10283000616C756520697320380A000072657475D3
:10284000726E2076616C756520697320390A00000C
:1028500072657475726E2076616C7565206973207F
:10286000300A000072657475726E2076616C756551
:102870002069732031310A0072657475726E20769A
:10288000616C75652069732031320A007265747558
:10289000726E2076616C7565206973203F0A0000B6
:1028A0000146114A12884A434FF0E0235A61002240
:1028B0009A611A46126942F001021A6100BF4FF094
:1028C000E022106900F001021AB100F48032002AFF
:1028D000F5D04FF0E022126922F001024FF0E02320
:1028E0001A6100229A617047380000200146114A9F
:1028F00012784A434FF0E0235A6100229A611A4647
:10290000126942F001021A6100BF4FF0E022106923
:1029100000F001021AB100F48032002AF5D04FF025
:10292000E022126922F001024FF0E0231A61002236
:102930009A6170473600002070B5054601200649AF
:102940000860002405E00549085D00F009F8601CF6
:10295000C4B20A2CF7DB70BD940121425300002061
:102960007CB50546A5F12300172819D2DFE800F051
:10297000A8B6B6B6B6B6B699B6B6B6B6B6890C1996
:10298000273442515F6C7A0001208DF8000000204E
:102990008DF801008DF802008DF803008DF8040019
:1029A0009CE000208DF8000001208DF8010000203F
:1029B0008DF802008DF803008DF804008EE00120F0
:1029C0008DF800008DF8010000208DF802008DF8D0
:1029D00003008DF8040081E000208DF800008DF8E0
:1029E000010001208DF8020000208DF803008DF811
:1029F000040073E001208DF8000000208DF8010034
:102A000001208DF8020000208DF803008DF80400ED
:102A100064E000208DF8000001208DF801008DF8A1
:102A2000020000208DF803008DF8040056E001201C
:102A30008DF800008DF801008DF8020000208DF85F
:102A400003008DF8040049E000208DF800008DF8A7
:102A500001008DF8020001208DF8030000208DF8A0
:102A600004003BE001208DF8000000208DF80100FB
:102A70008DF8020001208DF8030000208DF804007D
:102A80002CE000208DF8000001208DF801000020CE
:102A90008DF8020001208DF8030000208DF804005D
:102AA0001CE001208DF800008DF8010000208DF859
:102AB000020001208DF8030000208DF804000DE0D5
:102AC00000208DF800008DF8010001208DF8020033
:102AD0008DF8030000208DF8040000BF00BF002027
:102AE0001E490860002427E001201C49091D0860D8
:102AF0001B49C1F888010520FFF7F8FE1DF8040006
:102B000058B1012015490831086000201449C1F866
:102B100084010520FFF7EAFE0CE01DF8040048B927
:102B200000200E49083108600D49C1F884010520D4
:102B3000FFF7DCFE601CC4B2052CD5DB0120074981
:102B4000091D0860C820FFF7ABFE01200449C1F849
:102B50008001C820FFF7A4FE7CBD000080812142D7
:102B60000080214270B504460D46E1B20548FEF7EB
:102B700060FF00BF80210348FEF78DFE0028F9D0DA
:102B8000204670BD0038014070B5002521E000BF2F
:102B900043F63F014CF2503000F0D6FDFFF718FD30
:102BA00004462A2C04D101200E490870102510E09B
:102BB000232C06D100200B49087001250A49086022
:102BC00007E03F2C03D100200749086007E00025FB
:102BD000DEE7102D03D0012D01D03F2CD7D100BF4F
:102BE00070BD000033000020940121422DE9F04720
:102BF00006460C461546FDF787FE81464846FDF71A
:102C000015FB07463A460B4621A0FEF719FF304652
:102C1000FDF7FAFA07464946FDF742FB03D20120C9
:102C20002049087032E03046FDF7EEFA0746494683
:102C3000FDF72CFB0BD82046FDF7E6FA0746494680
:102C4000FDF72EFB03D20220164908701EE0204635
:102C5000FDF7DAFA07464946FDF718FB0BD8284678
:102C6000FDF7D2FA07464946FDF71AFB03D20320C7
:102C70000C4908700AE02846FDF7C6FA074649469F
:102C8000FDF704FB02D8042006490870BDE8F08770
:102C900074656D7065726174757265203A252E32A7
:102CA00066200A003400002010B5002407E004F17B
:102CB0001400FDF768FD03490855601CC4B2082CD8
:102CC000F5DB10BD2B000020744805784820FEF786
:102CD00041FB4FF46140FEF771FDFDF7ABFDFEF7E0
:102CE00049F800F045FA00F0C1FCFDF748FDFEF799
:102CF0005FF8FDF76BFE10B969A0FEF7A1FE00F0CA
:102D000037F900F025FAFFF7CFFF6DA0FEF798FE28
:102D1000C3E000BF032000F0C1FF06466C48007806
:102D2000F8B16CA0FEF78CFE6E48FEF7BBFB0020EE
:102D300067490870232214210A20FFF757FF00F08B
:102D4000A1FA69480078042800D146E06748007875
:102D5000012800D141E000206549087065490870EC
:102D6000D8E761480078042800D136E05F48007851
:102D7000012800D131E0012E2ED15FA0FEF760FEC8
:102D80000120614908600121022000F029FA5F4812
:102D900001785F4800F096F9E8B100BF05210220F4
:102DA00000F01EFA00BF00F04FFD5A4800F084FA10
:102DB000584800783F2807D056480078232809D182
:102DC00054484078232805D100264FF47A70FFF745
:102DD00067FD62E0E7E760E000BF4FA0FEF730FE6E
:102DE0005148FFF7A9FD0420FFF7A4FA0446022C7E
:102DF00032D12A4805784FF47A70FFF751FD4FF42D
:102E00007A70FFF74DFD3A48007840B10121042067
:102E100000F0E6F94FF47A70FFF742FD0AE035481A
:102E2000007838B10221042000F0DAF94FF47A700A
:102E3000FFF736FD00202E4908702E4908703BA090
:102E4000FEF7FEFDFFF7A0FE3F480078012823D1E2
:102E500000203D490870A1E7012C00D0E4B9002D05
:102E600008DD4EF65F2144F2506000F0ADFC681EB4
:102E7000C5B211E085B900201D4908701D490870D0
:102E800032A0FEF7DDFD00201F49086003480578E9
:102E90004FF47A70FFF704FD00BF3AE72A000020E4
:102EA00074656D70657261747572652073656E739B
:102EB0006F72206465746563746564210A000000A4
:102EC00070726F6772616D20737461727473000049
:102ED00020000020646520496E69742074696D6566
:102EE00072330A0000040040340000201400002067
:102EF000350000201500002063616C6C206465744F
:102F000065637465640A0000940121422800002072
:102F100044000020170000207374617274206469FB
:102F2000616C696E670A000053000020676F696E6C
:102F30006720696E746F20696E70757420726561A8
:102F40006465720A0000000033000020726563614E
:102F50006C6C2074696D65732072756E206F75746A
:102F60002C2068616E67696E672075700A0000002A
:102F700010B5002407E004F10B00FDF704FC034941
:102F80000855601CC4B2062CF5DB10BD44000020BF
:102F90002DE9F04106460F460024002500BF44E01D
:102FA0003A48405D30380A2838D2DFE800F0320570
:102FB0000A0F14191E23282D0121084600F010F9CC
:102FC0002CE00221012000F00BF927E00321012071
:102FD00000F006F922E00421012000F001F91DE0D3
:102FE0000521012000F0FCF818E00621012000F086
:102FF000F7F813E00721012000F0F2F80EE00821B5
:10300000012000F0EDF809E00921012000F0E8F8C6
:1030100004E00A21012000F0E3F800BF00BF4FF4F4
:103020007A70FFF73DFC681CC5B2194800788542EC
:10303000B6DB17480078874209D00321022000F050
:10304000CFF814A0FEF7FCFC0020BDE8F0810024BE
:103050000FE0305D0D49095D884208D00321022050
:1030600000F0BEF80BA0FEF7EBFC0020EDE7601CC3
:10307000C4B2074800788442EBDB0421022000F050
:10308000AFF80BA0FEF7DCFC0120DEE71900002002
:103090001F00002070617373776F726420646F6526
:1030A00073206E6F74206D617463680A0000000005
:1030B00070617373776F7264206D61746368657398
:1030C00021200A002DE9F04105460E460024022782
:1030D000A04600BF19E000F023FD31462846FFF767
:1030E00057FF8046B8F1000F05D00BA0FEF7A8FCF3
:1030F0000120BDE8F0811CB90421022000F070F825
:103100000BA0FEF79DFC601CC4B2BC42E3DB0020B8
:103110000E49086000BFECE7757365722061747436
:10312000656D70742073756363657373210A0000A5
:103130007573657220617474656D7074206E6F7440
:103140002073756363657373210A00009401214243
:1031500010B5002407E004F11400FDF714FB034947
:103160000855601CC4B20A2CF5DB10BD53000020CA
:1031700008B501210420FDF7B7FF48208DF80300B2
:103180001020ADF8000003208DF8020069461148B8
:10319000FDF71DFD2020ADF8000010208DF8030084
:1031A00069460C48FDF713FD01210820FDF79CFF3F
:1031B00048208DF803004FF40070ADF800000320A4
:1031C0008DF8020069460448FDF701FD002003491F
:1031D000086008BD00080140000C01409401214234
:1031E0002DE9F04F89B004460D464FF0FF084FF02F
:1031F0000609002001904FF00F0AA346009508EB46
:10320000090050445844009D284487B24FF6FF708F
:10321000C01B401C87B2380A0390F8B202907E208F
:10322000ADF81000ADF81280ADF81490ADF816A00E
:103230000198ADF81800ADF81AB0009DADF81C501B
:103240000398ADF81E000298ADF82000EF20ADF80D
:10325000220000260EE004A830F816100848FEF7F9
:10326000E8FB00BF80210648FEF715FB0028F9D0D7
:10327000701CC6B20A2EEEDB09B0BDE8F08F00006C
:103280000044004010B50748006830B101200649ED
:10329000087006A0FEF7D4FB02E000200249087087
:1032A00010BD00002881214214000020706F776556
:1032B00072206F7574210A0070B50446217878A0D9
:1032C000FEF7BEFB217876A0FEF7BAFB6078217886
:1032D00040EA012620783038C5B2304643F22A321F
:1032E000B11A96425CD00CDCA0F50C50A0F1230082
:1032F00000287AD0A0F6076050B1B0F5807F75D174
:1033000029E0B1F5807F73D0B1F5007FF7D194E06B
:103310006A48FEF7C7F86A48007800F0010038B143
:1033200068A0FEF78DFB02210320FFF759FF0BE099
:103330006348007800F0010030B966A0FEF780FB1A
:1033400001210320FFF74CFF284600F031F964A06B
:10335000FEF776FBA1E05948FEF7A4F8584800783C
:1033600000F00200022807D160A0FEF769FB0421EB
:103370000320FFF735FF0CE05148007800F0020011
:10338000022806D05DA0FEF75BFB03210846FFF78D
:1033900027FF284600F00CF95BA0FEF751FB7CE00C
:1033A0004648FEF77FF84648007800F004000428FD
:1033B00007D158A0FEF744FB06210320FFF710FFBA
:1033C0000CE03F48007800F00400042806D054A028
:1033D000FEF736FB05210320FFF702FF284600F029
:1033E000E7F852A0FEF72CFB57E04BE051E0FFE777
:1033F0003248FEF757F83248007800F008000828F5
:1034000007D14DA0FEF71CFB08210320FFF7E8FEC3
:103410000CE02B48007800F00800082806D04AA0ED
:10342000FEF70EFB07210320FFF7DAFE284600F027
:10343000BFF848A0FEF704FB2FE02048FEF732F863
:103440001F48007800F01000102807D144A0FEF7B4
:10345000F7FA0A210320FFF7C3FE0CE018480078B2
:1034600000F01000102806D041A0FEF7E9FA09216B
:103470000320FFF7B5FE284600F09AF83FA0FEF7BC
:10348000DFFA0AE00D48FEF70DF83FA0FEF7D8FA84
:1034900003E041A0FEF7D4FA00BF00BF70BD0000FA
:1034A000696E6465782030206F6620627566666597
:1034B000722069732025752F6E00000000080040FF
:1034C0002600002072656C61792031206F66660AE3
:1034D0000000000072656C61792031206F6E0A0077
:1034E0006361736520312A200A00000072656C61F7
:1034F000792032206F66660A0000000072656C61F8
:10350000792032206F6E0A006361736520322A20B1
:103510000A00000072656C617933206F66660A00EC
:1035200072656C61792033206F6E0A006361736588
:1035300020332A200A00000072656C617920342053
:103540006F66660A0000000072656C6179203420A5
:103550006F6E0A006361736520342A200A00000040
:1035600072656C61792035206F66660A0000000084
:1035700072656C61792035206F6E0A006361736536
:1035800020352A200A000000636173652071756987
:1035900074696E672A200A006D6967687420626525
:1035A00020696E76616C696420696E7075740000C4
:1035B0002DE9F041064600250027002429E0C6F148
:1035C0000800A04214D11C480078C5110DB9012093
:1035D00000E000200546184800784006000E164915
:1035E0000870C4F1070005FA00F0C5B22F430EE0E1
:1035F00011480078C511104800784006000E0E49A9
:103600000870C4F1070005FA00F0C5B22F43601C32
:10361000C4B2082CD3DB08480770007800F068F8C3
:10362000314606A0FEF70CFA0348017809A0FEF720
:1036300007FABDE8F081000026000020746F67677C
:103640006C696E672072656C6179202325752C0A80
:1036500000000000616C6C5F52656C61795F5374AF
:10366000617475732069732025750A0008B50121FE
:103670000820FDF739FD01210820FDF735FD012166
:103680000820FDF731FD01210846FDF72DFD012140
:103690001348FDF727FB01211248FDF723FB2020EB
:1036A000ADF8000010208DF8030003208DF8020013
:1036B00069460D48FDF78BFA0820ADF80000694611
:1036C0000948FDF784FA1020ADF800006946064865
:1036D000FDF77DFA0548007800F00AF808BD000003
:1036E0000002300000043000000C014026000020E1
:1036F00070B50446002500BF13E0E01110490860D2
:103700006006040E00200F49C1F88C010120FFF76C
:10371000EDF801200A49091F0860FFF7E7F8681C67
:10372000C5B2082DE9DB00200549091D086001200C
:10373000FFF7DCF801200349C1F8940170BD0000D7
:1037400090812142008021427FB505460C4601212F
:103750000420FDF7A9FCADF80850ADF804400020A6
:10376000ADF80A00ADF8060001A91648FDF7A8FF5C
:1037700001211448FDF784FE01211248FDF783FE64
:10378000012211460F48FDF792FF01210D48FDF778
:1037900077FE01210B48FDF776FE1E208DF8000014
:1037A00002208DF8010003208DF8020001208DF821
:1037B00003006846FDF73EFC01210248FDF766FE66
:1037C0007FBD0000000800407FB505460C46012182
:1037D0000220FDF769FCADF80850ADF80440002068
:1037E000ADF80A00ADF8060001A91648FDF768FF1C
:1037F00001211448FDF744FE01211248FDF743FE64
:10380000012211460F48FDF752FF01210D48FDF737
:1038100037FE01210B48FDF736FE1D208DF8000014
:1038200002208DF8010003208DF8020001208DF8A0
:1038300003006846FDF7FEFB01210248FDF726FE66
:103840007FBD0000000400402DE9F0410025022664
:103850000027F8E043F63F014CF25030FFF774FFC9
:10386000FEF7B6FE04463F2C01D17D490870312C8D
:1038700007D0322C05D0332C03D0342C01D0352C7A
:1038800012D18FB977A0FEF7DBF8B54204D07448A7
:103890004455681CC5B205E071484078704908700D
:1038A000084644700127CEE0232C12D18FB972A0B4
:1038B000FEF7C6F8B54204D069484455681CC5B245
:1038C00005E0674840786649087008464470032759
:1038D000B9E02A2C09D0362C07D0372C05D0382C4B
:1038E00003D0392C01D0302C05D127B967A0FEF7C1
:1038F000A7F80027A7E0012F51D12A2C11D169A0E8
:10390000FEF79EF8B54204D055484455681CC5B230
:1039100005E0534840785249087008464470022731
:1039200091E0232C11D154A0FEF78AF8B54204D0BF
:103930004B484455681CC5B205E0494840784849A1
:1039400008700846447003277DE0362C07D0372CDA
:1039500005D0382C03D0392C01D0302C0FD156A0F3
:10396000FEF76EF8B54202D03D48445505E03C48AC
:1039700040783B49087008464470002763E054A033
:10398000FEF75EF8B54202D03548445505E03448AC
:1039900040783349087008464470012753E0032FEC
:1039A00050D135A0FEF74CF8312C07D0322C05D081
:1039B000332C03D0342C01D0352C0ED1B54204D099
:1039C00027484455681CC5B205E02548407824497D
:1039D000087008464470012735E02A2C09D0302CA5
:1039E00007D0362C05D0372C03D0382C01D0392CF9
:1039F00011D13DA0FEF724F8B54204D01848445533
:103A0000681CC5B205E0164840781549087008469C
:103A10004470002717E0232C14D139A0FEF710F8CA
:103A2000B54204D00E484455681CC5B205E00C48A8
:103A300040780B4908700846447004270020354937
:103A4000086000E000BF022F04D0042F02D03F2CFA
:103A50007FF400AF30A0FDF7F3FFBDE8F081000078
:103A600017000020696E7369646520737461746562
:103A7000203030310A000000696E7369646520737C
:103A800074617465203031310A000000676F696E1F
:103A900067206261636B202073746174652030302D
:103AA000300A0000696E736964652073746174651F
:103AB000203031300A000000676F696E6720626154
:103AC000636B207374617465203030300A0000002D
:103AD00073746179696E67206174207374617465B1
:103AE000203030310A000000676F696E6720696E10
:103AF000746F2073746174652030303000000000F2
:103B0000696E736964652073746174652031303047
:103B10000A0000009401214274686520656E64000B
:103B20002DE9F041002600270024002032490870CA
:103B30004CE043F63F014CF25030FFF705FEFEF734
:103B400047FD0546232D03D12CA0FDF779FF3FE06B
:103B50002A2D1DD1002404E03F202D490855601C6A
:103B6000C4B2072CF8DB002600202349087029A0E6
:103B7000FDF766FF002406E02548015D2DA0FDF756
:103B80005FFF601CC4B21C48007884421EDAF3E771
:103B90003F2D06D128A0FDF753FF00202D490860D6
:103BA00016E0062E05D1052613480078401E12495E
:103BB000087017488555701CC6B20F480078401C25
:103BC0000D490870294624A0FDF73AFF002FB0D018
:103BD00000BF2AA0FDF734FF002406E00C48015D79
:103BE00014A0FDF72DFF601CC4B203480078844286
:103BF000F4DBBDE8F08100001F00002020656E743A
:103C0000657220697320707265737365640A0000C1
:103C100019000020757365722070617373776F727D
:103C20006420696E70757420726573657465640ACA
:103C3000000000002563000075736572206E6F2020
:103C4000726573706F6E73652074696D656F7574DE
:103C5000210A0000940121426F6E6520696E707523
:103C6000742064657465637465642066726F6D208A
:103C70006B65797061642025630A000074686520B3
:103C800075736572747970656420696E20706173F4
:103C900073776F7264206973200A000070B506465E
:103CA00000240025A2E05248007820B923221421E4
:103CB0000A20FEF79BFF4F480078042807D14C48A4
:103CC000007820B901204A490870002070BD4A4898
:103CD000007808B9FFF7D6FA48480078012807D1DC
:103CE0004548007820B90120434908700020EDE7DD
:103CF00043480078012801D10020E7E700BF414890
:103D00000068002872D06420FEF7CAFD3D480068B4
:103D100000284DD16420FEF7C3FD3A48006888B9F9
:103D2000032C02D13848FDF7BDFB38A0FDF788FE13
:103D300041A0FDF785FE43F63F014CF25030FFF7FE
:103D400003FD04E02F480068012800D1D7E703E015
:103D500000BF6420FEF7A4FD2A4800680028F7D0C1
:103D600039A0FDF76DFE2748006800B9F1E700248F
:103D700009E06420FEF794FD2248006800B100E0ED
:103D800003E0601CC4B2022CF3DD00BF032C0BD196
:103D90001D48FDF787FB43F63F014CF25030FFF71B
:103DA000D3FC681CC5B203E031A0FDF749FE002535
:103DB0003748007801280ED1002035490870124894
:103DC000FDF770FB33A0FDF73BFE37A0FDF738FE93
:103DD000002500207AE729463DA0FDF731FEB542D7
:103DE00004D10948FDF75EFB01206FE75BE70000A7
:103DF00035000020340000201500002014000020B1
:103E0000200000201001214200080040417420746D
:103E10006865207374617274206F66207468652011
:103E20006C6F7720766F6C74616765207365717550
:103E3000656E63650A00000074696D6572207374B5
:103E400061727465640A000061742074686520738F
:103E500074617274206F66206869676820766F6C81
:103E6000746167652073657175656E63650A00002E
:103E7000696E76616C69642072696E6720746F6E1A
:103E80006520726573657420746F2030200A00000D
:103E900016000020646574656374696E6720746938
:103EA0006D65646F75740A007265736574206E7554
:103EB0006D626572206F662072696E67732064653B
:103EC00074656374656420746F20300A20000000FC
:103ED00063616C6C20696E2072696E677320257552
:103EE0000A000000043F0008000000204400000019
:103EF000601A0008483F000844000020FC0400004D
:103F0000701A00080000000001020304010203040B
:103F1000060708090204060800000000003F3F3FB2
:103F20003F3F3F00000101010101FF0006000100C9
:103F30000000000000000000010000000000000080
:083F4000000000000000000079
:04000005080000ED02
:00000001FF
